:020000040800F2
:1000000000000220D91300080113000803130008A0
:10001000051300080713000809130008000000007A
:100020000000000000000000000000000B130008AA
:100030000D130008000000000F1300081113000842
:10004000291400082914000829140008291400089C
:10005000291400082914000829140008291400088C
:10006000291400082914000829140008291400087C
:10007000291400082914000829140008291400086C
:10008000291400082914000829140008291400085C
:10009000291400082914000829140008291400084C
:1000A000291400082914000829140008291400083C
:1000B000291400082914000829140008291400082C
:1000C000291400082914000829140008291400081C
:1000D000291400082914000829140008291400080C
:1000E00029140008291400082914000829140008FC
:1000F00029140008291400082914000829140008EC
:1001000029140008291400082914000829140008DB
:1001100029140008291400082914000829140008CB
:1001200029140008291400082914000829140008BB
:100130002914000800000000000000002914000835
:10014000291400082914000829140008291400089B
:10015000291400082914000829140008291400088B
:10016000291400082914000829140008291400087B
:1001700029140008291400080000000000000000F5
:080180002914000829140008ED
:1001900010B5054C237833B9044B13B10448AFF3C1
:1001A00000800123237010BDD80100200000000052
:1001B000F455000808B5034B1BB103490348AFF3DE
:1001C000008008BD00000000DC010020F45500089C
:1001D00001F0FF01102A2BDB10F0070F08D010F8F8
:1001E000013B013A8B422DD010F0070F42B3F6D1FC
:1001F000F0B441EA012141EA014122F007047FF015
:1002000000070023F0E80256083C85EA010586EA6B
:10021000010685FA47F5A3FA87F586FA47F6A5FAA7
:1002200087F68EB9EED1F0BC01F0FF0102F00702B3
:1002300032B110F8013B013A83EA010313B1F8D15E
:100240000020704701387047002D06BF354603383F
:10025000073815F0010F07D1013015F4807F02BF78
:10026000013015F4C03F0130F0BC0138704700BFC9
:10027000034613F8012B002AFBD1181A01387047E6
:1002800081F0004102E000BF83F0004330B54FEA47
:1002900041044FEA430594EA050F08BF90EA020FB4
:1002A0001FBF54EA000C55EA020C7FEA645C7FEA47
:1002B000655C00F0E2804FEA5454D4EB5555B8BF6A
:1002C0006D420CDD2C4480EA020281EA030382EADB
:1002D000000083EA010180EA020281EA0303362D6D
:1002E00088BF30BD11F0004F4FEA01314FF4801C40
:1002F0004CEA113102D0404261EB410113F0004F52
:100300004FEA03334CEA133302D0524263EB430308
:1003100094EA050F00F0A780A4F10104D5F1200EA6
:100320000DDB02FA0EFC22FA05F2801841F1000101
:1003300003FA0EF2801843FA05F359410EE0A5F1D5
:1003400020050EF1200E012A03FA0EFC28BF4CF006
:10035000020C43FA05F3C01851EBE37101F00045BC
:1003600007D54FF0000EDCF1000C7EEB00006EEBC9
:100370000101B1F5801F1BD3B1F5001F0CD3490853
:100380005FEA30004FEA3C0C04F101044FEA4452AA
:1003900012F5800F80F09A80BCF1004F08BF5FEA31
:1003A000500C50F1000041EB045141EA050130BD11
:1003B0005FEA4C0C404141EB0101013C28BFB1F523
:1003C000801FE9D291F0000F04BF01460020B1FA6E
:1003D00081F308BF2033A3F10B03B3F120020CDA41
:1003E0000C3208DD02F1140CC2F10C0201FA0CF01F
:1003F00021FA02F10CE002F11402D8BFC2F1200C84
:1004000001FA02F120FA0CFCDCBF41EA0C01904039
:10041000E41AA2BF01EB0451294330BD6FEA040482
:100420001F3C1CDA0C340EDC04F11404C4F120026D
:1004300020FA04F001FA02F340EA030021FA04F37F
:1004400045EA030130BDC4F10C04C4F1200220FAD6
:1004500002F001FA04F340EA0300294630BD21FA14
:1004600004F0294630BD94F0000F83F4801306BFDA
:1004700081F480110134013D4EE77FEA645C18BFCE
:100480007FEA655C29D094EA050F08BF90EA020F65
:1004900005D054EA000C04BF1946104630BD91EA5D
:1004A000030F1EBF0021002030BD5FEA545C05D160
:1004B0004000494128BF41F0004130BD14F580049F
:1004C0003CBF01F5801130BD01F0004545F0FE4113
:1004D00041F470014FF0000030BD7FEA645C1ABF48
:1004E000194610467FEA655C1CBF0B46024650EA7F
:1004F000013406BF52EA033591EA030F41F40021AB
:1005000030BD00BF90F0000F04BF0021704730B530
:100510004FF4806404F132044FF000054FF0000105
:1005200050E700BF90F0000F04BF0021704730B5C6
:100530004FF4806404F1320410F0004548BF40429B
:100540004FF000013EE700BF42004FEAE2014FEAF0
:1005500031014FEA02701FBF12F07F4393F07F4FCB
:1005600081F06051704732F07F4208BF704793F0CE
:100570007F4F04BF41F40021704730B54FF46074E1
:1005800001F0004521F000411CE700BF50EA0102E4
:1005900008BF704730B54FF000050AE050EA01028D
:1005A00008BF704730B511F0004502D5404261EBFD
:1005B00041014FF4806404F132045FEA915C3FF43E
:1005C000D8AE4FF003025FEADC0C18BF03325FEADB
:1005D000DC0C18BF033202EBDC02C2F1200300FA8C
:1005E00003FC20FA02F001FA03FE40EA0E0021FAB1
:1005F00002F11444BDE600BF70B54FF0FF0C4CF49F
:10060000E06C1CEA11541DBF1CEA135594EA0C0F50
:1006100095EA0C0F00F0DEF82C4481EA030621EA8B
:100620004C5123EA4C5350EA013518BF52EA0335C6
:1006300041F4801143F4801338D0A0FB02CE4FF078
:100640000005E1FB02E506F00042E0FB03E54FF0A8
:100650000006E1FB03569CF0000F18BF4EF0010EA0
:10066000A4F1FF04B6F5007F64F5407404D25FEA9C
:100670004E0E6D4146EB060642EAC62141EA55514F
:100680004FEAC52040EA5E504FEACE2EB4F1FD0C91
:1006900088BFBCF5E06F1ED8BEF1004F08BF5FEA0F
:1006A000500E50F1000041EB045170BD06F00046C1
:1006B00046EA010140EA020081EA0301B4EB5C046E
:1006C000C2BFD4EB0C0541EA045170BD41F4801166
:1006D0004FF0000E013C00F3AB8014F1360FDEBF8B
:1006E000002001F0004170BDC4F10004203C35DA67
:1006F0000C341BDC04F11404C4F1200500FA05F3EA
:1007000020FA04F001FA05F240EA020001F000428A
:1007100021F0004110EBD37021FA04F642EB060100
:100720005EEA430E08BF20EAD37070BDC4F10C042A
:10073000C4F1200500FA04F320FA05F001FA04F2EE
:1007400040EA020001F0004110EBD37041F10001DA
:100750005EEA430E08BF20EAD37070BDC4F12005E5
:1007600000FA05F24EEA020E20FA04F301FA05F24D
:1007700043EA020321FA04F001F0004121FA04F2F5
:1007800020EA020000EBD3705EEA430E08BF20EAC5
:10079000D37070BD94F0000F0FD101F000464000FF
:1007A00041EB010111F4801F08BF013CF7D041EA81
:1007B000060195F0000F18BF704703F00046520085
:1007C00043EB030313F4801F08BF013DF7D043EA56
:1007D0000603704794EA0C0F0CEA135518BF95EA0C
:1007E0000C0F0CD050EA410618BF52EA4306D1D193
:1007F00081EA030101F000414FF0000070BD50EAB2
:10080000410606BF1046194652EA430619D094EA3B
:100810000C0F02D150EA013613D195EA0C0F05D125
:1008200052EA03361CBF104619460AD181EA030179
:1008300001F0004141F0FE4141F470014FF0000031
:1008400070BD41F0FE4141F4780170BD70B54FF0CC
:10085000FF0C4CF4E06C1CEA11541DBF1CEA13554C
:1008600094EA0C0F95EA0C0F00F0A7F8A4EB05042E
:1008700081EA030E52EA03354FEA013100F0888025
:100880004FEA03334FF0805545EA131343EA1263EE
:100890004FEA022245EA111545EA10654FEA0026A3
:1008A0000EF000419D4208BF964244F1FD0404F55C
:1008B000407402D25B084FEA3202B61A65EB0305B8
:1008C0005B084FEA32024FF480104FF4002CB6EB75
:1008D000020E75EB030E22BFB61A754640EA0C00F5
:1008E0005B084FEA3202B6EB020E75EB030E22BF35
:1008F000B61A754640EA5C005B084FEA3202B6EB76
:10090000020E75EB030E22BFB61A754640EA9C0034
:100910005B084FEA3202B6EB020E75EB030E22BF04
:10092000B61A754640EADC0055EA060E18D04FEAC2
:10093000051545EA16754FEA06164FEAC30343EA62
:1009400052734FEAC2025FEA1C1CC0D111F4801F2F
:100950000BD141EA00014FF000004FF0004CB6E728
:1009600011F4801F04BF01430020B4F1FD0C88BFC7
:10097000BCF5E06F3FF6AFAEB5EB030C04BFB6EBD2
:10098000020C5FEA500C50F1000041EB045170BDC5
:100990000EF0004E4EEA113114EB5C04C2BFD4EBF2
:1009A0000C0541EA045170BD41F480114FF0000E76
:1009B000013C90E645EA060E8DE60CEA135594EAF2
:1009C0000C0F08BF95EA0C0F3FF43BAF94EA0C0FF5
:1009D0000AD150EA01347FF434AF95EA0C0F7FF46A
:1009E00025AF104619462CE795EA0C0F06D152EABE
:1009F00003353FF4FDAE1046194622E750EA4106A2
:100A000018BF52EA43067FF4C5AE50EA41047FF4B2
:100A10000DAF52EA43057FF4EBAE12E74FF0FF3C17
:100A200006E000BF4FF0010C02E000BF4FF0010CE8
:100A30004DF804CD4FEA410C7FEA6C5C4FEA430C61
:100A400018BF7FEA6C5C1BD001B050EA410C0CBFB0
:100A500052EA430C91EA030F02BF90EA020F002012
:100A6000704710F1000F91EA030F58BF994208BF79
:100A700090422CBFD8176FEAE37040F00100704736
:100A80004FEA410C7FEA6C5C02D150EA013C07D18D
:100A90004FEA430C7FEA6C5CD6D152EA033CD3D0D8
:100AA0005DF8040B704700BF8446104662468C46D2
:100AB0001946634600E000BF01B5FFF7B7FF002805
:100AC00048BF10F1000F01BD4DF808EDFFF7F4FF2E
:100AD0000CBF012000205DF808FB00BF4DF808EDB9
:100AE000FFF7EAFF34BF012000205DF808FB00BFDC
:100AF0004DF808EDFFF7E0FF94BF012000205DF8FE
:100B000008FB00BF4DF808EDFFF7CEFF94BF0120B2
:100B100000205DF808FB00BF4DF808EDFFF7C4FFAB
:100B200034BF012000205DF808FB00BF4FEA410CF4
:100B30007FEA6C5C02D150EA013C0AD14FEA430CD7
:100B40007FEA6C5C02D152EA033C02D14FF0000014
:100B500070474FF0010070474FEA410212F5001252
:100B600015D211D56FF47873B3EB625212D94FEAF4
:100B7000C12343F0004343EA505311F0004F23FADE
:100B800002F018BF404270474FF00000704750EA33
:100B9000013005D111F0004008BF6FF000407047F0
:100BA0004FF00000704700BF4FEA4102B2F1E0434E
:100BB00024BFB3F5001CDCF1FE5C0DD901F0004C44
:100BC0004FEAC0024CEA5070B2F1004F40EB830094
:100BD00008BF20F00100704711F0804F21D113F1C0
:100BE0003872BCBF01F00040704741F480114FEAF9
:100BF0005252C2F11802C2F1200C10FA0CF320FA82
:100C000002F018BF40F001004FEAC1234FEAD3239E
:100C100003FA0CFC40EA0C0023FA02F34FEA430308
:100C2000CCE77FEA625307D150EA01331EBF4FF091
:100C3000FE4040F44000704701F0004040F0FE40AC
:100C400040F40000704700BF53B94AB9002908BFFB
:100C500000281CBF4FF0FF314FF0FF3000F06AB9A1
:100C6000ADF1080C6DE904CE00F006F8DDF804E003
:100C7000DDE9022304B070472DE9F047089D0C46DA
:100C8000002B4ED194468C458646B2FA82F262D948
:100C90004AB1C2F12003914020FA03F30CFA02FC9E
:100CA000194300FA02FE4FEA1C471FFA8CF6B1FB0B
:100CB000F7F44FEA1E4307FB141143EA014304FB18
:100CC00006F199420AD91CEB030304F1FF3080F0CE
:100CD0001281994240F20F81023C6344591A1FFA73
:100CE0008EF3B1FBF7F007FB101143EA014300FB61
:100CF00006F69E420AD91CEB030300F1FF3180F097
:100D0000FC809E4240F2F980634402389B1B40EA1B
:100D1000044000211DB1D3400022C5E90032BDE8E6
:100D2000F0878B4205D90DB1C5E9000100210846C5
:100D3000F5E7B3FA83F1002946D1A34202D39042EA
:100D4000C0F0F080861A64EB03030120002DE6D08A
:100D5000C5E90063E3E7002A40F09080A1EB0C04B2
:100D60004FEA1C481FFA8CF70121B4FBF8F64FEA52
:100D70001E4308FB164443EA044307FB06F098426F
:100D800008D91CEB030306F1FF3402D2984200F2AB
:100D9000CD8026461C1A1FFA8EF3B4FBF8F008FB30
:100DA000104443EA044300FB07F79F4208D91CEBB9
:100DB000030300F1FF3402D29F4200F2B0802046CC
:100DC000DB1B40EA0640A5E7C1F120068B4022FA72
:100DD00006F71F4320FA06FC04FA01F343EA0C036A
:100DE000F44000FA01F8380C4FEA1349B4FBF0FE66
:100DF0001FFA87FC00FB1E4449EA04440EFB0CF971
:100E0000A14502FA01F20AD93C190EF1FF3A80F02D
:100E10008480A14540F28180AEF1020E3C44A4EBF7
:100E200009041FFA83F9B4FBF0F300FB134449EA09
:100E3000044403FB0CFCA44507D93C1903F1FF3023
:100E400067D2A44565D9023B3C4443EA0E40A0FB6F
:100E50000293A4EB0C049C42CE469C4651D34ED048
:100E600055B1B8EB0E0364EB0C0404FA06F6CB4064
:100E70001E43CC40C5E90064002150E7C2F12003C5
:100E800020FA03F10CFA02FC24FA03F394400C4319
:100E90004FEA1C4800FA02FE1FFA8CF7B3FBF8F089
:100EA00008FB1031230C43EA014300FB07F1994290
:100EB00008D91CEB030300F1FF362CD299422AD942
:100EC000023863445B1AA4B2B3FBF8F108FB113398
:100ED00044EA034401FB07F3A34208D91CEB0404D2
:100EE00001F1FF3613D2A34211D902396444E41A46
:100EF00041EA004139E70446F0E6084606E7C845FE
:100F0000AED2B9EB020E63EB070C0138A8E731460D
:100F1000EDE7034699E73046D4E7D6467FE76344DA
:100F200002384DE70646234608460FE7023E634473
:100F300030E700BF704700BF10B594B01022002109
:100F40000AA802F032FC1422002103A802F02DFCB2
:100F5000204B002101911A6C42F080521A641B6CE4
:100F600003F080530193019B1B4B02911A6842F4DA
:100F700080421A601B6803F480430293029B0121A4
:100F80004FF480330224CDE908134FF48003192075
:100F9000CDE90E434FF4A873CDE91003072308A849
:100FA0001294139300F04CFF08B172B6FEE70F23C2
:100FB000CDE9033405904FF4A0524FF4805305213E
:100FC00003A8CDE9062301F017F908B172B6FEE7D0
:100FD00014B010BD003802400070004080B58CB0E5
:100FE00000F010FDFFF7A8FF1422002107A802F06F
:100FF000DCFB0024504B03941A6B5048504D42F0D8
:1010000080021A631A6B02F080020392039A04941E
:101010001A6B42F004021A631A6B02F00402049283
:10102000049A05941A6B42F001021A631A6B02F0DB
:1010300001020592059A06941A6B42F002021A63A5
:101040001B6B03F00203224606930221069B00F06D
:1010500049FE01230220CDE9070307A93748CDE95E
:10106000094400F067FD37484FF4E133C0E900530D
:101070000C23C0E90534C0E902440461C46101F0F5
:10108000A9FD034608B172B6FEE72F482F4A8361D7
:10109000C0E90023C0E90233C0E90433C0E90833E2
:1010A00083620A23C36201F027FA034608B172B6CD
:1010B000FEE72748274A28490362C0E900124FF497
:1010C0008042C0E90233C0E90423C0E9063300F0DE
:1010D0000FFE08B172B6FEE74FF4967000F0BEFC4A
:1010E00000F01CFA154F1D4E01220221384600F077
:1010F000F9FD4FF47A7000F0B1FC0022022138466D
:1011000000F0F0FD4FF47A7000F0A8FC00F0D6FB80
:10111000C82000F0A3FC306BFFF716FA0446F06A13
:101120000D46FFF711FA2246CDE900012B460C4887
:1011300002F0E6FAD7E700BF00380240000802409C
:1011400000440040F40100203C0200200030014037
:1011500094020020A086010000540040F402002008
:101160001056000807B54FF6FF730190012201A940
:10117000034801F05EFD019803B05DF804FB00BF79
:10118000F401002082B00C4B002100915A6C42F413
:1011900080425A645A6C02F480420092009A019193
:1011A0001A6C42F080521A641B6C03F08053019356
:1011B000019B02B0704700BF0038024030B50446C2
:1011C00089B01422002103A802F0EFFA2268134B21
:1011D0009A4221D1124C134800250195236B43F00C
:1011E00002032363236B03F002030193019BC022DC
:1011F0001223CDE9032303210423CDE9061303A918
:1012000000F098FC0295236C43F400132364236CD4
:1012100003F400130293029B09B030BD0054004058
:10122000003802400004024010B5044688B0142281
:10123000002103A802F0B9FA2268144B9A4222D185
:1012400003F58433002101915A6C114842F4805215
:101250005A645A6C02F480520192019A02911A6BFC
:1012600042F001021A631B6B03F001030293029B1D
:10127000F02202230321CDE903230523CDE9061340
:1012800003A900F057FC08B010BD00BF00300140BA
:101290000000024010B5044688B01422002103A8C3
:1012A00002F083FA2268144B9A4222D103F5FA33F2
:1012B000002101911A6C114842F400321A641A6C30
:1012C00002F400320192019A02911A6B42F001027B
:1012D0001A631B6B03F001030293029B0C2202238F
:1012E0000321CDE903230723CDE9061303A900F069
:1012F00021FC08B010BD00BF0044004000000240C7
:10130000FEE7FEE7FEE7FEE7FEE77047704770473F
:1013100000F092BB0120704708B502F099FA16233D
:1013200003604FF0FF3008BD08B502F091FA1623B4
:101330000360FEE770B50D4614460E46731B9C42D3
:1013400001DC204670BDAFF3008006F8010BF5E725
:1013500070B50D4614460E46731B9C4201DC2046B8
:1013600070BD16F8010BFFF7FDFEF5E74FF0FF30FB
:1013700070474FF400534B600020704701207047C6
:10138000002070470B4A116810B5034609B90A4995
:101390001160106809490A4C0344091B8B4206D9A5
:1013A00002F056FA0C2303604FF0FF3010BD1360BB
:1013B000FCE700BFE80200209004002000000220AB
:1013C00000040000034AD2F8883043F47003C2F8E6
:1013D0008830704700ED00E0DFF834D0FFF7F2FF0F
:1013E0000C480D490D4A002302E0D458C450043380
:1013F000C4188C42F9D30A4A0A4C002301E0136056
:101400000432A242FBD302F029FAFFF7E7FD70474E
:101410000000022000000020D4010020C85900086C
:10142000D80100208C040020FEE7000007B5064B21
:101430000A46596800911B680146044800F072FA98
:1014400003B05DF804FB00BFEC0200203C0200206A
:1014500007B5064B0A46596800911B6801460448C7
:1014600000F08CFA03B05DF804FB00BFEC02002032
:101470003C020020064B597F1A7F93F821308900E7
:1014800041EA42111943C9B2F420FFF7E1BF00BF9E
:10149000F4020020064BD97F9A7F93F82030890010
:1014A00041EA42111943C9B2F520FFF7D1BF00BF8D
:1014B000F402002008B5FFF7EDFFBDE80840FFF794
:1014C000D9BF000038B5134D134C06218820FFF713
:1014D000ADFF2B6823601221AB88A3808E20FFF71D
:1014E000A5FF2B88E3806B882381AB886381EB8821
:1014F000A3812B89E3816B892382AB896382EB898A
:10150000A3822B8AE382FF21BDE838407420FFF7D5
:101510009FBF00BF28030020F402002008B50A4B3B
:101520000A4A1A60B6211022E0209A80FFF790FF45
:10153000FFF7C8FF064B074ADA614FF440721A847E
:10154000BDE80840FFF7B6BFEC02002000000240F3
:10155000F40200200505010408B50321F720FFF778
:1015600065FF064B58781A789B78000140EA0230F4
:1015700040EA1310024B986208BD00BF2803002008
:10158000F402002008B50321FA20FFF74FFF064BB5
:1015900058781A789B78000140EA023040EA13102C
:1015A000024B586208BD00BF28030020F40200204F
:1015B0002DE9F047FFF7E6FFFEF7B4FFDFF8E4A000
:1015C0000646BAF800000F46FEF79CFF304B044673
:1015D0000D46002230463946FFF70EF82D4B804667
:1015E0008946002220462946FFF706F802460B46A8
:1015F00040464946FEF748FE274B80468946002272
:1016000030463946FEF7F8FF244B06460F460022C7
:1016100020462946FEF7F0FF02460B463046394683
:10162000FEF732FE0446BAF902000D46FEF77AFFD5
:1016300002460B4620462946FEF7DEFF0646BAF96B
:1016400004000F46FEF76EFF424604460D464B4629
:1016500040464946FEF7D0FF02460B462046294643
:10166000FEF7CAFF02460B4630463946FEF70EFE2D
:1016700004460D46FFF770FA094BCAF8180000221D
:1016800020462946FFF7E2F841EC100BBDE8F08751
:101690000000E03E0000203F0000103F0000503FEF
:1016A0000000B440F40200202DE9F84FFFF754FF8A
:1016B000794C0546A069FEF735FF784B0022FEF70E
:1016C0009BFF774B0022FEF7DFFD06460F46B4F97D
:1016D0000A00FEF727FF32463B46FEF78DFF3246F3
:1016E0003B46FEF789FF00224FF07B53FEF784FF55
:1016F0008046B4F908008946FEF714FF32463B469F
:10170000FEF77AFF02460B4640464946FEF7BEFD0D
:1017100000224FF07B53FEF76FFF00224FF07C5307
:10172000FEF76AFF5F4B0022FEF7B0FD8046894658
:10173000E088FEF7E7FE42464B46FEF75DFF0022DB
:10174000002382468B46FFF7BFF9002840F09980BE
:10175000B4F91000FEF7E6FE3246804689463B4665
:1017600030463946FEF748FF02460B46404649469A
:10177000FEF742FF00224FF07C53FEF73DFF80460C
:10178000B4F90E008946FEF7CDFE32463B46FEF721
:1017900033FF02460B46FEF779FD42464B46FEF705
:1017A00075FD414B0022FEF727FF064628460F46EF
:1017B000FEF7B8FE02460B4600203C49FEF764FDEA
:1017C0008046B4F90C008946FEF7ACFE384B002287
:1017D000FEF712FF32463B46FEF758FD354B00221E
:1017E000FEF70AFF02460B4640464946FEF74CFD0F
:1017F00025A3D3E90023FEF7FFFE52465B46FFF721
:1018000025F806460F46B4F91600FEF78BFE324661
:101810003B46FEF7F1FE32463B46FEF7EDFE002268
:101820004FF07853FEF7E8FE8046B4F9140089467D
:10183000FEF778FE32463B46FEF7DEFE00224FF012
:101840007C53FEF7D9FE02460B4640464946FEF75A
:101850001DFD8046B4F912008946FEF763FE02467C
:101860000B4640464946FEF711FD134B0022FEF79A
:10187000C3FE32463B46FEF709FD41EC100BBDE8C6
:10188000F88F9FED030BFAE700000000006AB840F4
:101890000000000000000000F40200200000E03F13
:1018A0000040EF400000F03F0000D03F000030411A
:1018B0000000F0400000303F0000B03F10B5FFF7DF
:1018C00077FE51EC100BFFF76FF9054CE062FFF764
:1018D000EBFE51EC100BFFF767F9206310BD00BF62
:1018E000F402002010B586B0002304468DF80F10D6
:1018F0008DF81730204601F0ABF80528FAD04FF4E8
:10190000807300930DF1170201230DF10F012046A2
:1019100000F0FEFE18B99DF8170006B010BDFF20BC
:10192000FBE7000082B0F7B5BDF82870099361F0BD
:101930007F01054616468DF80710184639460022E5
:101940001C4600F0CFF90DF107014FF4807301221E
:10195000284600F02DFE4FF4807332460649284693
:1019600000F0D2FF01223946204600F0BBF903B057
:10197000BDE8F04002B070472803002082B02DE996
:10198000F041BDF82080079305460F4618461646DD
:10199000414600221C4600F0A5F939462846FFF7CB
:1019A000A1FF31462846FFF79DFF41462046BDE88E
:1019B000F041012202B000F095B9000038B50E4B9D
:1019C0001A784FF47A73B3FBF2F30C4A05461068A9
:1019D000B0FBF3F000F09AF8044658B90F2D09D87F
:1019E000024629464FF0FF3000F05EF8044B2046D7
:1019F0001D6038BD0120FCE704000020000000202D
:101A00000800002008B50B4B1A6842F400721A60F7
:101A10001A6842F480621A601A6842F480721A608E
:101A2000032000F02FF80F20FFF7C8FFFFF7AAFBF5
:101A3000002008BD003C0240034A044B11681B789B
:101A40000B441360704700BF3C03002004000020DB
:101A5000014B1868704700BF3C03002038B50446AE
:101A6000FFF7F6FF631C1CBF054B1B78054618BF2C
:101A7000E418FFF7EDFF431BA342FAD338BD00BFC4
:101A8000040000200749CA6822F4E062030212043D
:101A900003F4E063120C134343F0BF6343F40033D9
:101AA000CB60704700ED00E0164B30B5DC68C4F346
:101AB0000224C4F10703251D042B28BF0423062D8F
:101AC0004FF0FF358CBF033C002405FA03F321EAF5
:101AD0000303A54022EA0502A340002843EA0203CB
:101AE000ACBF00F16040084A4FEA0313B8BF00F0F2
:101AF0000F00DBB2AABF00F56140135480F8003339
:101B000030BD00BF00ED00E014ED00E00138B0F1A1
:101B1000807F0BD24FF0E023054A5861F02182F814
:101B200023100020072298611A6170470120704736
:101B300000ED00E02DE9F74FDFF8A491664A00239D
:101B40000D6801249C4004EA0506AC4340F0AF80D8
:101B50004D68032705F003044FEA430807FA08FC21
:101B6000671E012F6FEA0C0C34D8876807EA0C0E49
:101B7000CF6807FA08F747EA0E078760476827EA41
:101B8000060EC5F300179F4047EA0E074760C76877
:101B900007EA0C0E8F6807FA08F747EA0E07022CCF
:101BA000C76019D14FEAD30A00EB8A0A03F0070B8A
:101BB000DAF820704FEA8B0B4FF00F0E0EFA0BFE87
:101BC00027EA0E0E0F6907FA0BF747EA0E07CAF865
:101BD000207001E0032CDAD1076804FA08F407EA60
:101BE0000C073C4315F4403F046060D0002401948E
:101BF000D9F8444044F48044C9F84440D9F84440FA
:101C000023F0030707F1804704F4804407F59C376D
:101C1000019403F0030C019CD7F808E04FEA8C0C08
:101C20000F2404FA0CF42EEA040E2C4CA04245D0EA
:101C300004F58064A04243D004F58064A04241D002
:101C400004F58064A0423FD004F58064A0423DD0FA
:101C500004F58064A0423BD004F58064A04239D0F2
:101C600004F58064A04214BF0824072404FA0CF48D
:101C700044EA0E04BC609468F74315F4801F0CBF5F
:101C80003C4034439460D46815F4001F0CBF3C40C2
:101C90003443D460546815F4003F0CBF3C403443D7
:101CA00054601468ED0354BF3C4034431460013366
:101CB000102B7FF445AF03B0BDE8F08F0024D5E7CB
:101CC0000124D3E70224D1E70324CFE70424CDE79E
:101CD0000524CBE70624C9E7003C01400000024090
:101CE000003802400AB1816170470904FBE7000037
:101CF00070B5044608B9012070BD90F83D3003F07E
:101D0000FF021BB980F83C20FFF758FA242384F81F
:101D10003D3023681A6822F001021A601A6842F402
:101D200000421A601A6822F400421A6000F0FEFABB
:101D30003F4B65689D4294BF3E4B3F4B98428CBFE2
:101D400000230123002BD6D12268394E51683B4B2A
:101D5000B0FBF3F321F03F011943B542516088BF56
:101D60004FF49676116A88BF734321F03F0184BF18
:101D70004FF47A76B3FBF6F301330B431362D16968
:101D8000431E2B4821F44F41854221F0FF0132D8F8
:101D90006D0040F6FC70B3FBF5F30133034242D013
:101DA000C3F30B031943D161D4E90730116803432E
:101DB00021F0C0010B4313609168D4E9030321F4BF
:101DC0000341034321F0FF010B439360D4E9053045
:101DD000D168034321F0FF010B43D360136843F044
:101DE0000103136000202023206484F83D30206329
:101DF00084F83E0080E7A06850B905EB4505B3FBC9
:101E0000F5F30133C3F30B037BB143F40043C9E79C
:101E100019206843B3FBF0F30133C3F30B0323B181
:101E200043F44043BEE70423BCE70123BAE700BF05
:101E3000A08601007F841E00FF083D0040420F0085
:101E40002DE9F341044640B30368DE0710D423684C
:101E50009D075BD42368190700F19D8023685A070A
:101E600000F1BD80A369002B40F0248100202CE00C
:101E70008D4B9A6802F00C02042A07D09A6802F08F
:101E80000C02082A0BD15B68590208D5864B1B68E7
:101E90009A03DCD56368002BD9D1012015E0636873
:101EA000814DB3F5803F13D12B6843F480332B6011
:101EB000FFF7CEFD7C4E054633689B03C7D4FFF782
:101EC000C7FD401B6428F7D9032002B0BDE8F081AC
:101ED000B3F5A02F04D12B6843F480232B60E3E7F4
:101EE0002A6822F480322A602A6822F480222A603A
:101EF000002BDDD1FFF7ACFD06462B689F03A6D56E
:101F0000FFF7A6FD801B6428F7D9DDE7664B9A68CA
:101F100012F00C0F07D09A6802F00C02082A11D1B7
:101F20005B685D020ED4604A1368990702D5E368C6
:101F3000012BB2D11368216923F0F80343EAC103EE
:101F4000136087E7E268594BB2B101221A60FFF7CC
:101F50007FFD554D06462B689B0707D52B682269E8
:101F600023F0F80343EAC2032B6073E7FFF770FD29
:101F7000801B0228EFD9A7E71A60FFF769FD4A4ED8
:101F8000054633689F077FF565AFFFF761FD401B8E
:101F90000228F6D998E76269444B82B10122C3F85E
:101FA000802EFFF755FD404E0546736F9B073FF5AA
:101FB00055AFFFF74DFD401B0228F6D984E7C3F863
:101FC000802EFFF745FD384E0546736F9F077FF55E
:101FD00045AFFFF73DFD401B0228F6D974E7324BB1
:101FE0001A6C12F0805228D101921A6C42F0805281
:101FF0001A641B6C03F080530193019B01272C4D45
:102000002B68D8051BD5A368274D012B27D12B6F33
:1020100043F001032B67FFF71BFD234E054641F2FA
:102020008838336F9A0739D5002F3FF41BAF1E4A0B
:10203000136C23F08053136414E70027DFE72B6849
:1020400043F480732B60FFF703FD06462B68D90528
:10205000D9D4FFF7FDFC801B0228F7D934E7052B04
:1020600004D12B6F43F004032B67D0E72A6F22F0D3
:1020700001022A672A6F22F004022A67002BCAD1C4
:10208000FFF7E6FC41F2883806462B6F9B07CBD55D
:10209000FFF7DEFC801B4045F7D915E7FFF7D8FCBA
:1020A000401B4045BDD90FE70038024000004742C1
:1020B00000700040374DAA6802F00C02082A3ED09A
:1020C000022B354B4FF000021A662BD1FFF7C0FCF4
:1020D00006462B6899011FD4D4E907321343626A7C
:1020E00043EA8213E26A43EA0263A26A5208013AAF
:1020F00043EA02436B60284B264D01221A66FFF724
:10210000A7FC04462B689A013FF5B0AEFFF7A0FC90
:10211000001B0228F6D9D7E6FFF79AFC801B02289D
:10212000D7D9D1E6FFF794FC04462B689B017FF5D5
:102130009DAEFFF78DFC001B0228F6D9C4E6012BEB
:102140003FF4ABAE6B68E26903F4800191427FF427
:10215000A4AE216A03F03F028A427FF49EAE616A18
:1021600047F6C0721A40B2EB811F7FF496AEA26AA6
:10217000520803F44031013AB1EB024F7FF48DAEC7
:10218000E26A03F07063B3EB026F14BF012000201A
:102190009BE600BF0038024000004742134908B5E3
:1021A0008B6803F00C03042B1CD0082B1CD14A684D
:1021B0004B68496813F4800314BF0D480D48C1F300
:1021C000881118BF002302F03F02A1FB0001FEF7B7
:1021D0003BFD064B5B68C3F3014301335B00B0FB7F
:1021E000F3F008BD0248FCE70248FAE70038024075
:1021F00040787D010024F4002DE9F0410D460446AD
:1022000010B90120BDE8F081434B1A6802F00702C3
:102210008A4228D321688F072DD4C80740D43E4B6B
:102220001A6802F00702AA4265D8226851076BD4E7
:10223000130707D5394A2169936823F4604343EAB9
:10224000C1039360FFF7AAFF344B354A9B68C3F381
:102250000313D35CD840334B1860334B1868FFF737
:10226000ADFB0020CEE7CAB21A701B6803F007036B
:102270008B42C6D1CEE7294B11F0040F1EBF9A68DE
:1022800042F4E0529A600E0742BF9A6842F46042FC
:102290009A609A68A06822F0F00202439A60BCE754
:1022A00062681E4B012A1CD11B6813F4003FA8D0A2
:1022B0001A4EB36823F003031343B360FFF7C8FB60
:1022C00041F288380746B368626803F00C03B3EB49
:1022D000820FA4D0FFF7BCFBC01B4045F3D90320FD
:1022E00090E7911E01291B6802D813F0007FDEE7FA
:1022F00013F0020FDBE7EAB21A701B6803F0070362
:10230000AB427FF47EAF90E70449E0688B6823F42A
:10231000E05303438B608BE7003C024000380240EF
:102320003A5600080000002008000020044B054A2F
:102330009B68C3F38223D35C034A1068D84070477C
:10234000003802403256000800000020044B054AC5
:102350009B68C3F34233D35C034A1068D84070478C
:102360000038024032560008000000202DE9F347F3
:102370001F46894690460446FFF76AFB0A9D3D4486
:102380002D1AFFF765FB264B1E68C6F3CB366E434E
:10239000824601962268936839EA03030CBF012341
:1023A0000023434501D100202EE07B1CF3D0FFF732
:1023B0004FFBA0EB0A00A84229D323685A6822F0F9
:1023C000E0025A606268B2F5827F0AD1A268B2F573
:1023D000004F02D0B2F5806F03D11A6822F040029C
:1023E0001A60A26AB2F5005F07D11A6822F400529F
:1023F0001A601A6842F400521A60012384F85130BE
:10240000002384F85030032002B0BDE8F087019A21
:10241000019B002A03F1FF33019308BF1546B9E77A
:1024200000000020F0B585B00B4600920E4617461E
:10243000022101220446FFF799FF054628B1636D8A
:1024400043F020036365032515E0124B1868124B17
:10245000B0FBF3F04FF47A73584363680390B3F51D
:10246000827F0BD1009733462A4680212046FFF712
:102470007DFF0028E3D1284605B0F0BD039B002B6B
:10248000F9D0039B013B039323689B681B06F5D49B
:10249000F1E700BF0000002000366E0137B50B46A3
:1024A0004168B1F5827F044608D0009201210022E4
:1024B000FFF75CFFD0B9002003B030BD8168B1F5F3
:1024C000004F02D0B1F5806F07D125682868B1F5BB
:1024D000806F20F04000286004D00092802100220C
:1024E0002046E5E7009201210022F9E7636D43F001
:1024F000200363650320DFE710B50446002855D0AC
:10250000436A002B4ED14268B2F5827F00D0C3618E
:102510000023A36294F8513003F0FF0223B984F83A
:1025200050202046FEF780FE2168A068A2690223A1
:1025300084F851300B6823F040030B60636800F4AB
:10254000044003F482730343E06800F40060034333
:10255000206900F002000343606900F001000343BA
:1025600002F400700343E06900F038000343206A7E
:1025700000F080000343A06A00F4005003430B60A6
:10258000636A120C03F0100302F004021A434A605B
:10259000CB6923F40063CB6100200123606584F8DC
:1025A000513010BD0023C0E90433B1E70120F8E742
:1025B0002DE9F74304461F460D469046FFF748FABB
:1025C00094F85130012B8146D8B240F09F80002D05
:1025D00074D0B8F1000F71D094F85030012B00F096
:1025E0009580032384F8513000236365C4E91033D8
:1025F000A4F83680A363A387E387A368266884F8DA
:102600005000B3F5004F2563A4F8348007D1336838
:1026100023F040033360336843F48043336033680E
:10262000E2685B065EBF336843F040033360B2F597
:10263000006F636845D113B1B8F1010F07D135F8C8
:10264000023BF3602563E38E013B9BB2E386E38E9E
:102650009BB2D3B94A4639462046FFF7E3FE00282D
:1026600051D1A36833B901932368DA6801929B685A
:102670000193019B012384F85130606D0023C01A3F
:1026800084F8503018BF012018E02268936898073A
:1026900005D5236B33F8021BD1602363D3E7FFF723
:1026A000D7F9A0EB0900B842D1D3791CCFD00123D0
:1026B00084F85130002384F85030032003B0BDE883
:1026C000F08313B1B8F1010F08D12B783373236B6A
:1026D00001332363E38E013B9BB2E386E38E9BB21F
:1026E000002BB7D023689A68920703D5226B127823
:1026F0001A73ECE7FFF7ACF9A0EB0900B842EDD391
:102700007B1CEBD0D3E720236365AAE70220D5E743
:102710002DE9F74304460D4691461E46DDF8288014
:10272000FFF796F994F851306268012B0746D9B249
:102730000AD0B2F5827F40F0E580A368002B40F01C
:10274000E180042940F0DE80002D4BD0B9F1000F6C
:1027500048D0002E46D094F85030012B00F0D280A3
:10276000012384F8503094F85130C4F83890042B89
:102770001CBF052384F8513000236365C4E910337E
:102780002368E687E6861968A687490658BF196850
:10279000256358BF41F04001A68658BF1960E16823
:1027A000B1F5006F55D10AB1012E07D135F8022BD2
:1027B000DA60E38E2563013B9BB2E3860125E38E5D
:1027C0009BB28BB9E38F9BB273B93A464146204620
:1027D000FFF728FE002800F0818020236365002396
:1027E00084F85030012031E021688B689A070DD5BC
:1027F000E38E9BB253B145B1236B33F8022BCA6011
:102800002363E38E013B9BB2E38600258A6812F0C6
:1028100001020CD0E38F9BB24BB1A36BC96823F8C4
:10282000021BA363E38F013B9BB2E3871546FFF7CF
:102830000FF9C01B4045C2D3B8F1FF3FBFD0012301
:1028400084F85130002384F85030032003B0BDE8F1
:10285000F0830AB1012E08D12A781A73236B013351
:102860002363E38E013B9BB2E38601252DE02268C2
:1028700093689B070ED5E38E9BB25BB14DB1236B82
:102880001B781373236B01332363E38E013B9BB2ED
:10289000E38600252268916811F001010DD0E38FD5
:1028A0009BB253B1A36BD2681A70A36B0133A363BD
:1028B000E38F013B9BB2E3870D46FFF7C9F8C01BCE
:1028C000404502D3B8F1FF3FB9D1E38E9BB2002B54
:1028D000CDD1E38F9BB2002BC9D176E7A36833B982
:1028E00001932368DA6801929B680193019B01239D
:1028F00084F85130606D0023C01A84F8503018BF3E
:102900000120A3E70220A1E72DE9F7431E4690F836
:102910005130012B044689461746DDB204D002250A
:10292000284603B0BDE8F0834368B3F5827F0BD13E
:1029300083684BB9042380F85130134600960A4649
:10294000FFF7E6FE0546EBE7FFF782F88046B9F1B0
:10295000000FE5D0002FE3D094F85030012BDED0EB
:10296000A268C4F838900123002584F85030B2F5ED
:10297000004F4FF0040384F85130C4E910556565E9
:102980002368E787A7872563A586E58607D11A68A8
:1029900022F040021A601A6822F480421A601A6813
:1029A00055065EBF1A6842F040021A60E368F3B150
:1029B000E38F9BB2FBB123689A68D2073CD5DA68F3
:1029C000A36B23F8022BA363E38F013B9BB2E38746
:1029D000EEE723689A68D0071ED5A26B1B7B1370A5
:1029E000A36B0133A363E38F013B9BB2E387E38FC8
:1029F0009BB2002BEDD1424631462046FFF74EFDFB
:102A000018BB012384F85130656D0023ED1A84F85A
:102A1000503018BF012583E7FFF71AF8A0EB080034
:102A2000B042E4D3711CE2D0012384F8513000237A
:102A300084F85030032573E7FFF70AF8A0EB08008D
:102A4000B042B5D3731CB3D0EEE720236365D8E75B
:102A500090F851007047026802F10C0353E8003F00
:102A600023F490730C3242E8003102680029F2D15D
:102A700002F1140353E8003F23F0010302F1140CA8
:102A80004CE800310029F3D1036B012B0BD102F18B
:102A90000C0353E8003F23F0100302F10C0C4CE848
:102AA00000310029F3D1202380F842300023036352
:102AB000704700000268C16838B5136923F44053B9
:102AC0000B431361054683680069D1680343686955
:102AD0000343E86921F4164121F00C0103430B4341
:102AE000D3605369A96923F440730B4353611F4BAF
:102AF0009A4203D003F580639A4224D1FFF726FC63
:102B0000EA691921B2F5004FD5E90043A0FB0101A4
:102B10001CD1DA184FF0000545EB0503FEF794F8D9
:102B20006422B0FBF2F102FB1103DB003233B3FB92
:102B3000F2F303F007025B0002EB011203F4F873F7
:102B40001344A36038BDFFF7F1FBD9E79A009B0F50
:102B5000FEF77AF86422B0FBF2F102FB11031B01CD
:102B60003233B3FBF2F303EB0113EAE70010014049
:102B7000F7B505460C4617461E462A68136834EA20
:102B8000030301D1002021E0701CF7D0FEF760FFA5
:102B9000C01B86421CD3DEB12B68DA685107ECD526
:102BA000802CEAD0402CE8D01A681207E5D5002422
:102BB00001941A6801925B6801932846019BFFF714
:102BC0004AFF08236B6485F84040012003B0F0BD44
:102BD0000320FBE710B5044648B390F8413003F0FA
:102BE000FF021BB980F84020FEF754FB2268242323
:102BF00084F84130D36823F40053D3602046FFF7B4
:102C000059FF23681A6922F490421A615A6922F026
:102C10002A025A61DA6842F40052DA600020202366
:102C2000606484F8413084F84230606310BD012054
:102C3000FCE72DE9F843984690F84130202B0446F4
:102C40000E4617463FD100293FD0002A3DD0212310
:102C50000025456480F84130FEF7FAFEA368A7849A
:102C6000B3F5805F8146E78403D123690BB935460C
:102C70001E46E38C9BB253B943464A464021204648
:102C8000FFF776FF202350B984F841300AE043462D
:102C90004A4680212046FFF76BFF28B1202384F8A5
:102CA00041300320BDE8F88322684EB935F8023B75
:102CB000C3F308035360E18C013989B2E184D8E79A
:102CC00016F8013BF6E70220ECE70120EAE72DE9E0
:102CD000FF4757EC106B002F0C4619463B46BBBF15
:102CE00007F100431F4600232D230B700D9BDDF8D9
:102CF00030A0914623F02008BCBF32461646B8F1FA
:102D0000460F05D0B8F1450F00D10134022100E093
:102D1000032103AB019302AB009347EC106B5346C6
:102D2000224600F04DFEB8F1470F054619D119F0C3
:102D3000010F0ED000EB0409002200233046394673
:102D4000FDF7C2FE08B1CDF80C903022039B4B4535
:102D50001ED3039B0E9A5B1B2846136004B0BDE88C
:102D6000F087B8F1460F00EB0409E5D10378302B6A
:102D70000AD10022002330463946FDF7A5FE18B9D6
:102D8000C4F10104CAF80040DAF800309944D3E7EE
:102D9000591C03911A70D9E7F7B50029BABF494207
:102DA0002D232B2309290270437029DD0DF1070320
:102DB0001D460A271A46B1FBF7F607FB16143034F6
:102DC00002F8014C0C46632C03F1FF333146F1DC71
:102DD0003031941E03F8011C411C2346AB420AD338
:102DE0000DF109039B1AAC4288BF00230233034450
:102DF000181A03B0F0BD13F8016B01F8016FEDE78D
:102E0000302330318370C170031DF1E72DE9F04F9D
:102E10008DB00C46DDF8588016461F46054600F07A
:102E2000CDFC036804931846FDF722FA00230A93A9
:102E3000D8F800300590073323F0070303F10802A8
:102E400094F818A0D4F800B0C8F80020D3E900899D
:102E500029F000430793CDF81880C4E91289DDE911
:102E600006019C4B4FF0FF32FDF760FE70BBDDE9C1
:102E70000601984B4FF0FF32FDF73AFE30BB0022BF
:102E8000002340464946FDF729FE10B12D2384F862
:102E90004330914A914BBAF1470F94BF9046984600
:102EA000032323612BF0040323604FF000090097F4
:102EB00033460BAA2146284600F0D2F9013040F0F3
:102EC0008D804FF0FF300DB0BDE8F08F42464B468D
:102ED00040464946FDF72AFE40B14B46002BBCBF99
:102EE0002D2384F843307E4A7E4BD4E763680AF092
:102EF000DF0206925A1C3BD1062363604BF48062CA
:102F00000023226003930AABCDE901A309AB009330
:102F1000616849EC108B0DF123032846FFF7D7FEBB
:102F2000069B0999472B804629D1C81C02DB6368A0
:102F3000994241DDAAF1020A5FFA8AFA0139524642
:102F400004F150000991FFF727FF0A9A1318012A8C
:102F50008146236102DC2268D20701D50133236157
:102F60009DF82330002BA2D02D2384F843309EE718
:102F7000069A472AC2D1002BC0D10123BDE7BAF17E
:102F8000650FDBD9BAF1660F18D1002963680BDD34
:102F9000216113B92268D00702D501330B442361A4
:102FA000A1654FF00009DBE713B92268D20701D50C
:102FB0000233F4E70123F2E74FF0670A0A9B9942D4
:102FC00005DB23682161D807EAD54B1CE7E7002918
:102FD000D4BFC1F1020201221344E0E723685A057D
:102FE00007D42369424631462846B84701302BD1E1
:102FF00067E7BAF1650F40F2DD80D4E912010022E3
:103000000023FDF761FD002833D0374A0123314604
:103010002846B84701303FF454AFDDE9093843454D
:1030200002DB2368D8070FD5DDE9042331462846A3
:10303000B84701303FF445AF4FF0000908F1FF38C1
:1030400004F11A0AC84509DC23689B0700F10381D3
:10305000E0680B9B9842B8BF184634E701235246FC
:1030600031462846B84701303FF42BAF09F101093A
:10307000E8E7099B002B39DC1B4A0123314628462F
:10308000B84701303FF41DAFDDE9093959EA0303C0
:1030900002D12368D907D7D5DDE904233146284674
:1030A000B84701303FF40DAF4FF0000A04F11A0B9E
:1030B000099B5B42534501DC4B4693E701235A468B
:1030C00031462846B84701303FF4FBAE0AF1010A09
:1030D000EEE700BFFFFFEF7F4A5600084E5600089C
:1030E00052560008565600085A560008A36DDDF8DF
:1030F00028A05345A8BF5346002B994636DC4FF015
:10310000000B29EAE97904F11A02A36D0693A3EBF7
:1031100009035B4531DC099B9A453ADC2368DA07F1
:1031200037D4099BAAEB0309069BAAEB0303994535
:10313000A8BF9946B9F1000F33DC4FF0000829EA27
:10314000E97904F11A0B099BAAEB0303A3EB09032A
:1031500043457FF779AF01235A4631462846B847A1
:1031600001303FF4AEAE08F10108ECE742463146CB
:103170002846B8470130C2D1A3E60123314628468C
:103180000692B84701303FF49CAE069A0BF1010B52
:10319000BBE7DDE9042331462846B8470130C0D1FA
:1031A0008FE6069A4B46424431462846B8470130DE
:1031B000C3D186E6DDF828A0BAF1010F01DCDB07F8
:1031C00036D50123424631462846B84701303FF400
:1031D00078AEDDE9042331462846B84701303FF494
:1031E00070AED4E91201002200230AF1FF3AFDF784
:1031F0006BFCC0B9534608F1010231462846B84776
:1032000001300CD15DE601235A4631462846B847C5
:1032100001303FF456AE08F10108D045F3DB4B46D0
:1032200004F15002DFE64FF0000804F11A0BF4E756
:1032300001234246E1E701234A4631462846B84782
:1032400001303FF43EAE08F10108E3680B995B1AC8
:103250004345F0DCFCE64FF0000804F11909F4E7FF
:103260002DE9F047164698468A680B69DDF82090EC
:103270009342B8BF1346336091F8432007460C468B
:103280000AB1013333602368990642BF33680233C1
:103290003360256815F0060506D104F1190AE368C4
:1032A00032689B1AAB4226DC94F843302268003B1C
:1032B00018BF012392062BD404F14302414638463D
:1032C000C84701301ED02368226903F00603042B8F
:1032D00002BFE5683368ED1AA3680CBF25EAE575FF
:1032E00000259342C4BF9B1AED1800261A34B5423C
:1032F0001AD1002008E00123524641463846C8470B
:10330000013003D14FF0FF30BDE8F0870135C6E74B
:10331000E1185A1C302081F84300224494F84510EB
:1033200082F843100233C7E701232246414638465C
:10333000C8470130E6D00136D9E700002DE9FF4744
:103340000F7E0C9E782F914680460C469A4601F1DE
:10335000430207D8622F0AD8002F00F0D280582FDE
:1033600000F0B98004F1420684F842703AE0A7F117
:103370006303152BF6D801A151F823F0D5330008CB
:10338000E933000865330008653300086533000839
:1033900065330008E9330008653300086533000829
:1033A0006533000865330008E93400081334000869
:1033B000A334000865330008653300080B350008A6
:1033C00065330008133400086533000865330008CE
:1033D000AB34000833681A1D1B68326004F14206E2
:1033E00084F8423001239DE033682068191D316064
:1033F000060601D51D6803E04506FBD5B3F900506C
:10340000002D03DA2D236D4284F8433059480A23F6
:1034100011E021683368080653F8045B02D44906BA
:1034200048BFADB26F2F5348336014BF0A2308233F
:10343000002184F843106668A660002EA2BF2168B0
:1034400021F0040121600DB9002E4BD01646B5FBCA
:10345000F3F103FB1157C75D06F8017D2F46BB4210
:103460000D46F4D9082B0BD12368DF0708D5236953
:1034700061689942DEBF302306F8013C06F1FF3651
:10348000921B2261CDF800A04B4603AA214640467C
:10349000FFF7E6FE01304AD14FF0FF3004B0BDE83F
:1034A000F087236843F0200323603348782784F8AB
:1034B0004570236831681F0651F8045B02D45F062B
:1034C00048BFADB23160D90744BF43F02003236049
:1034D0001DB11023ACE72748E9E7236823F0200358
:1034E0002360F6E71646BDE7336825686169181D55
:1034F00030602E061B6801D5196002E06806FBD516
:103500001980002323611646BCE733681A1D326018
:103510001E68626800213046FCF75AFE08B1801B25
:10352000606063682361002384F84330AAE723695D
:10353000324649464046D0470130ADD023689B070C
:1035400013D4E068039B9842B8BF1846A6E701234E
:10355000324649464046D04701309DD00135E368A8
:1035600003995B1AAB42F2DCEBE7002504F1190684
:10357000F5E700BF5C5600086D560008002310B543
:103580000446C0E90033C0E90433836081814366A7
:10359000C2818361194608225C3000F006F90D4BA8
:1035A00063620D4BA3620D4BE3620D4B23630D4B26
:1035B00024629C4206D003F16802944202D0D033C8
:1035C0009C4205D104F15800BDE8104000F06AB9F2
:1035D00010BD00BF25370008473700087F370008B7
:1035E000A337000840030020024A0349034800F0C3
:1035F00069B800BF0C000020D95100081C00002051
:1036000041680C4B994210B5044601D001F0E4FD2D
:10361000A168094B994202D0204601F0DDFDE16826
:10362000064B994204D02046BDE8104001F0D4BDBD
:1036300010BD00BF40030020A8030020100400209C
:1036400010B50B4B0B4C0C4A1A602046002204218B
:10365000FFF794FF04F1680001220921FFF78EFFB4
:1036600004F1D0000222BDE810401221FFF786BF0E
:103670007804002040030020E9350008014800F0EC
:1036800012B900BF81040020014800F00DB900BF4D
:103690008104002010B50446FFF7F0FF236A1BB138
:1036A000BDE81040FFF7F0BF044B2362044B1B68DA
:1036B000002BF5D1FFF7C4FFF2E700BF0136000889
:1036C000780400202DE9F843074688461446002672
:1036D000D4E90195B9F1010905D52468002CF7D189
:1036E0003046BDE8F883AB89012B07D9B5F90E3018
:1036F000013303D029463846C04706436835E9E719
:103700000FB407B5064904AB086853F8042B816869
:10371000019301F0C5FB03B05DF804EB04B0704702
:103720001800002010B50C46B1F90E1000F06CF82E
:103730000028ABBF636DA3891B1823F48053ACBF73
:103740006365A38110BD2DE9F0411F468B89DB0520
:1037500005460C46164605D5B1F90E100223002287
:1037600000F040F8A389B4F90E1023F48053A3812C
:1037700032463B462846BDE8F04100F057B810B548
:103780000C46B1F90E1000F02DF8431CA38915BFAB
:10379000606523F4805343F48053A38118BFA38151
:1037A00010BDB1F90E1000F00DB80244034693426B
:1037B00000D1704703F8011BF9E70000004870478B
:1037C0005801002038B5064D0023044608462B60FA
:1037D000FDF7CCFD431C02D12B6803B1236038BD3B
:1037E0007C04002038B5074D0446084611460022E7
:1037F0002A601A46FDF7C4FD431C02D12B6803B1B1
:10380000236038BD7C04002038B5074D04460846C7
:10381000114600222A601A46FDF78CFD431C02D196
:103820002B6803B1236038BD7C04002038B5074DF8
:1038300004460846114600222A601A46FDF788FD14
:10384000431C02D12B6803B1236038BD7C040020E7
:10385000014B1868704700BF1800002070B50D4D6F
:103860000D4C641BA4100026A64209D10B4D0C4C34
:1038700001F0C0FE641BA4100026A64205D170BD55
:1038800055F8043B98470136EEE755F8043B984756
:103890000136F2E7C0590008C0590008C0590008B5
:1038A000C45900087047704770472DE9F74F036906
:1038B0000C69A34207467EDB013C01F11408A3001A
:1038C00000F11405009305EB8403019358F82430AC
:1038D00055F8242001339A4208EB8409B2FBF3F631
:1038E0002ED34FF0000AC446AE46D3465CF8043BE4
:1038F00098B206FB00A0020C1B0C06FB0323DEF8AB
:10390000002080B292B2121A5A44DEF800004FEA48
:10391000134A9BB2C3EB224303EB104392B242EA39
:103920000342E1454EF8042B4FEA234BDED2009BC5
:10393000EB582BB9019B043B9D421A462FD33C61A7
:10394000384601F07BF9002825DB2946002058F88D
:10395000042BD1F800C01FFA82FE1FFA8CF3A3EBF0
:103960000E030344120CC2EB234202EB1C429BB237
:1039700043EA0243C14541F8043B4FEA2240E6D204
:1039800055F8242005EB840322B9043B9D421A46D6
:103990000BD33C610136304603B0BDE8F08F1268AE
:1039A000043B002ACBD1013CC6E71268043B002A45
:1039B000EFD1013CEAE70020EEE700000000000044
:1039C0002DE9F04FC76999B08DED020B55EC104B06
:1039D000229E099183460E9213937FB9102000F026
:1039E000FDFD0246CBF81C0020B9A74BEF21A748EC
:1039F00001F0CCFCC0E901770760C760DBF81C3040
:103A0000196859B15A684A60012393408B6058463F
:103A100000F0DAFEDBF81C3000221A602B1EB9BF62
:103A200023F00043039300233360039F984BBCBFF4
:103A300001223260BB4312D1139A42F20F7313601A
:103A4000C7F31303234300F04D85239BDFF854A2F3
:103A5000002B00F04F850AF1030300F049BD9DEDF6
:103A6000027B002251EC170B00238DED0C7BFDF740
:103A70002BF8804658B1139A01231360239B13B18E
:103A8000239A844B1360DFF820A200F033BD9DED34
:103A90000C0B16AA17A9584601F080F9C7F30A566D
:103AA0008146002E77D00D9BCDF85080C3F31303D1
:103AB000DDE90C0143F07F5343F44013A6F2FF36D7
:103AC00019460022744BFCF7DFFB69A3D3E90023FE
:103AD000FCF792FD68A3D3E90023FCF7D7FB04466B
:103AE00030460D46FCF71EFD65A3D3E90023FCF725
:103AF00083FD02460B4620462946FCF7C7FB0446D9
:103B00000D46FDF729F800220746002320462946E6
:103B1000FCF7E4FF40B13846FCF704FD22462B4693
:103B2000FCF7D2FF00B9013F162F51D85B4B03EBD6
:103B3000C703D3E90023DDE90C01FCF7CFFF002820
:103B400048D0013F00231293169B9B1B5A1E44BF73
:103B5000C3F101080023089254BF4FF000080893F6
:103B6000002F39DB089B0F973B44089300230A93EF
:103B7000099B092B64D8052BC4BF043B0993099BFF
:103B8000A3F10203CCBF00240124032B63D8DFE898
:103B900003F02A373555DDE916631E4406F2324339
:103BA000202BC1BFC3F140039F4006F2124324FA09
:103BB00003F3D6BFC3F1200347EA030004FA03F07E
:103BC000FCF7A0FC0122A1F1F873013E149277E703
:103BD0000123B8E71290B7E77B420A930023A8EBD2
:103BE00007080F93C4E700230B930E9B002B35DCD3
:103BF0000123009307931A460E920BE00123F3E78B
:103C000000230B930E9BFB1800930133012B0793AA
:103C1000B8BF0123DBF81C000021042202F11405C7
:103C20009D421FD94160584600F08EFD8246002813
:103C30003CD11B4B024640F2AF11D8E60123E0E72E
:103C40000124002309930B944FF0FF330093079353
:103C500000221223D0E701230B93F5E70E9B00937C
:103C60000793D7E701315200D8E700BFAFF30080D8
:103C700061436F63A787D23FB3C8608B288AC63F72
:103C8000FB799F501344D33F8B560008A25600087F
:103C90000000F07F5B5600080000F83F98570008CE
:103CA000FA560008875600085A560008DBF81C3000
:103CB0001860079B0E2B00F2A480002C00F0A1805E
:103CC000002F33DDAD4B07F00F0203EBC20393ED82
:103CD000007BF8058DED047B4FEA271416D5A84B21
:103CE000DDE90C01D3E90823FCF7B0FDCDE90201C1
:103CF00004F00F040326A24D54B9DDE90423DDE9E5
:103D00000201FCF7A3FDCDE9020128E00226F2E75B
:103D1000E10708D5DDE90401D5E90023FCF76CFCD7
:103D2000CDE90401013664100835E5E700F0D280E2
:103D30007C42924B924D04F00F0203EBC203D3E995
:103D40000023DDE90C01FCF757FCCDE90201241149
:103D500000230226002C40F0B280002BD3D1129B0E
:103D6000DDE90245002B00F0B780864B002220469B
:103D70002946FCF7B3FE002800F0AE80079B002B1D
:103D800000F0AA80009B002B37DD7B1E04932046A9
:103D90007D4B00222946FCF72FFCCDE90201009C57
:103DA00001363046FCF7BEFBDDE90223FCF724FCBC
:103DB000764B0022FCF76AFA0546A1F15076002CFA
:103DC00040F08D80DDE90201714B0022FCF75CFAC6
:103DD00002460B46CDE902232A463346FCF79CFEF9
:103DE000002840F08B82DDE902012A4606F10043FB
:103DF000FCF774FE002840F02881DDE90C34CDE9A1
:103E00000234179B002BC0F25A810E2F00F357810A
:103E10005A4B03EBC70393ED007B0E9B002B8DEDFC
:103E2000007B03DA079B002B40F30181DDE90245AB
:103E30005646DDE9002320462946FCF707FDFCF73E
:103E40008BFE8046FCF76EFBDDE90023FCF7D4FB1C
:103E500002460B462046294608F13004FCF714FAC6
:103E600006F8014B079DA6EB0A04A54202460B4645
:103E700040F01781FCF70AFADDE9002304460D46FD
:103E8000FCF74AFE002840F0F980DDE900232046D7
:103E90002946FCF719FE18B118F0010F40F0EE802A
:103EA0004946584600F090FC00233370139B0137BD
:103EB0001F60239B002B00F01D831E601AE3E207A6
:103EC00005D5D5E90023FCF797FB013601236410E3
:103ED00008353FE7022642E7079C049761E7274B36
:103EE0000B9903EBC40353E902235444002953D034
:103EF00028490020FCF7AAFC33462A46FCF7C4F9FF
:103F0000CDE910015646DDE90201FCF725FE054624
:103F1000FCF708FB02460B46DDE90201FCF7B4F9A9
:103F2000303502460B46CDE9022306F8015BDDE998
:103F30001023FCF7D3FD002871D1DDE902231149DC
:103F40000020FCF7A1F9DDE91023FCF7C7FD0028EC
:103F500040F09580A6423FF450AFDDE910010A4BD6
:103F60000022FCF749FB084BCDE910010022DDE9F6
:103F70000201FCF741FBCDE90201C4E798570008B4
:103F8000705700080000F03F0000244000001C4073
:103F9000000014400000E03F31462846FCF72CFBAF
:103FA000CDE9100115945646DDE90201FCF7D4FD78
:103FB0000546FCF7B7FA02460B46DDE90201FCF7BD
:103FC00063F9303506F8015B02460B46A642CDE99F
:103FD00002234FF0000224D1AC4BDDE91001FCF7C5
:103FE00055F902460B46DDE90201FCF795FD002874
:103FF00045D1DDE91023A5490020FCF745F902462B
:104000000B46DDE90201FCF769FD00283FF4F5AE3F
:10401000159E731E159316F8013C302BF8D0049FA3
:104020003EE79B4BFCF7E8FACDE90201BCE70CD177
:10403000984B0022DDE90001FCF7DEFADDE90223FE
:10404000FCF760FD002800F05781002425460E9BF8
:10405000DB430493564600272146584600F0B4FB44
:10406000002DDCD02FB1AF4203D03946584600F0C6
:10407000ABFB2946584600F0A7FBD0E70497334630
:104080001E4613F8012D392A07D19A45F8D1049A12
:104090000132049230228AF800201A7801321A7014
:1040A000BDE77B4B0022FCF7A7FA00220023044661
:1040B0000D46FCF709FD00283FF4BBAEF0E60B9A75
:1040C000002A00F0DB80099A012A00F3BF80149ACD
:1040D000002A00F0B78003F233430A9C4646089A50
:1040E00001211A4458469844089200F021FC0546E4
:1040F0005EB1089B002B08DDB342089AA8BF334687
:10410000A8EB0308F61AD31A08930A9BF3B10B9B8A
:10411000002B00F0B7808CB129462246584600F0AB
:10412000C7FC4A4601460546584600F017FC49467A
:104130000490584600F048FB049B99460A9B1A1BC2
:1041400004D04946584600F0B3FC81460121584648
:1041500000F0EEFB0F9B0446002B00F0CF811A46C7
:104160000146584600F0A4FC099B012B044600F3CD
:104170009580029B002B40F08780039BC3F31303C1
:10418000002B40F08980039B23F000431B0D1B058F
:104190002BB1089B0133089308F1010801230A930E
:1041A0000F9B002B00F0B081236904EB8303186997
:1041B00000F072FBC0F12000089B184410F01F00B3
:1041C00077D0C0F12003042B6BDD089BC0F11C00ED
:1041D0000344804406440893B8F1000F05DD4946C6
:1041E0004246584600F0BEFC8146089B002B05DD88
:1041F00021461A46584600F0B5FC0446129B002B97
:1042000059D02146484600F019FD002853DA7B1E9C
:104210000493494600230A22584600F0F7FA0B9B04
:104220008146002B00F07281002329460A2258465D
:1042300000F0ECFA009B002B054667DC099B022B83
:1042400041DC63E0169BC3F1360346E7079B5C1E27
:104250000A9BA342BFBF0A9B0F9A0A94E31AB4BFFA
:10426000D2181C1B079BBCBF0F920024002BB5BFAC
:10427000A8EB0306079B0023464630E70A9C0B9DEC
:10428000464635E70A9A5CE7002388E70000E03FEE
:104290000000244000001440029B80E700230A93A2
:1042A00082E799D0089A1C331A4498441E44089215
:1042B00092E70346F6E7079B0497002B20DC009368
:1042C000099B022B1EDD009B002B7FF4C0AE214614
:1042D0000522584600F09AFA01460446484600F086
:1042E000ADFC00287FF7B3AE5646312306F8013BFC
:1042F000049B01330493AEE6079C04972546F3E73D
:10430000079B00930B9B002B00F00481002E05DD22
:1043100029463246584600F025FC05460A9B002BEC
:104320005AD06968584600F00FFA064628B9844BFF
:10433000024640F2EF21FFF75ABB2A69023292008F
:1043400005F10C010C3001F013F8012231465846FA
:1043500000F008FC0AF101030793009B53440B9300
:10436000029B03F001032F460A930546079B214653
:10437000013B48460093FFF798FA3946029000F156
:104380003008484600F05AFC2A4608902146584614
:1043900000F070FCC268064602BB0146484600F0C9
:1043A0004DFC0246314658460E9200F00DFA099B2C
:1043B0000E9A079E43EA02010A9B194310D1B8F1F5
:1043C000390F29D0089B002B02DD029B03F1310835
:1043D000009B83F800803FE62846BBE70122E1E727
:1043E000089B002B04DB09990B430A990B4320D14E
:1043F000002AEDDD49460122584600F0B3FB214674
:10440000814600F01BFC002803DCE1D118F0010F0D
:10441000DED0B8F1390FD8D1009A39231370334662
:104420001E46013B16F8012C392A52D001321A706F
:1044300012E6002A07DDB8F1390FEDD0009A08F135
:104440000103137008E6079B079A03F8018C0B9B86
:10445000934228D0494600230A22584600F0D6F954
:10446000AF4281464FF000034FF00A0239465846EA
:1044700007D100F0CBF907460546079B01330793A8
:1044800074E700F0C3F92946074600230A2258467C
:1044900000F0BCF90546F0E7009B002BCCBF1E46A0
:1044A00001265644002749460122584600F05AFB8F
:1044B0002146814600F0C2FB0028B0DC02D118F092
:1044C000010FACD133461E4613F8012D302AFAD025
:1044D000C2E59A45A4D1049B0133049331238AF8A1
:1044E0000030B9E5239BDFF85CA01BB10AF108039B
:1044F000239A1360504619B0BDE8F08F099B012B39
:104500007FF737AE0F9B0A93012055E6009B002BE7
:104510007FF7D6AE564621464846FFF7C6F900F16A
:10452000300806F8018B009BA6EB0A029342B3DD2C
:10453000494600230A22584600F068F98146EAE716
:10454000FA5600087E56000838B50546002941D0C5
:1045500051F8043C0C1F002BB8BFE41800F0E8F839
:104560001D4A136833B9636014602846BDE83840BB
:1045700000F0E4B8A34208D9206821188B4201BF9B
:1045800019685B6809182160EDE71A465B680BB192
:10459000A342FAD911685018A0420BD120680144F7
:1045A000501883421160E0D118685B68536008447A
:1045B0001060DAE702D90C232B60D6E720682118B7
:1045C0008B4204BF19685B68636004BF09182160EF
:1045D0005460CAE738BD00BF88040020024B014682
:1045E000186800F025B800BF1800002070B50F4E05
:1045F0000C463168054611B900F0AAFE306021462C
:10460000284600F0A5FE431C03D14FF0FF3420469E
:1046100070BDC41C24F00304A042F8D0211A28461F
:1046200000F096FE0130F2D1EFE700BF84040020D5
:104630002DE9F843CD1C25F0030508350C2D38BFB6
:104640000C25002D064601DBA94204D90C2333605A
:104650000020BDE8F883DFF8D48000F069F8D8F8CE
:1046600000301C4644BB29463046FFF7BFFF431CC1
:10467000044658D1D8F800402746002F43D1002CDB
:104680004BD023683946304604EB030900F060FE46
:10469000814542D121686D1A29463046FFF7A6FFB1
:1046A00001303AD023682B442360D8F800305A6890
:1046B00062BBC8F800700FE02268521B20D40B2A9E
:1046C00017D96119A342256018BF5960636808BFF4
:1046D000C8F8001062514B60304600F02FF804F12A
:1046E0000B00231D20F00700C21A1CBF1B1AA35089
:1046F000AFE76268A3420CBFC8F800205A60EBE73E
:1047000023466468AEE73C467F68B6E71A465B68B6
:10471000A342FBD100235360DEE70C233360304615
:1047200000F00CF894E70560D6E700BF880400208D
:104730000148FFF7B8B800BF800400200148FFF728
:10474000B3B800BF8004002070B5C66904460D46AA
:1047500076B91020FFF742FF0246E06120B9184BFE
:1047600018486B2100F012FEC0E901660660C660C1
:10477000E669F36883B1E369DB6853F82500B8B9EB
:10478000012101FA05F6721D9200204600F01CFE80
:1047900060B1C0E901560EE021220421204600F05C
:1047A00013FEE369F060DB68002BE4D1002070BDEC
:1047B000026843F825200023C0E90333F7E700BF70
:1047C0008B5600080B57000870B5C66905460C46A5
:1047D00076B91020FFF702FF0246E86120B9094BC5
:1047E00009488F2100F0D2FDC0E901660660C6606D
:1047F0003CB1EB696268DB6853F82210216043F832
:10480000224070BD8B5600080B5700082DE9F0417F
:104810000D6907460C461E4601F1140C0020DCF819
:10482000003099B202FB01611E0C0B0C02FB063337
:1048300089B2013001EB034185424CF8041B4FEA79
:104840001346ECDC0EB3A368AB4219DC6168384652
:104850000131FFF779FF804628B902460C4B0D481D
:10486000BA2100F093FD2269023204F10C0192009A
:104870000C3000F07DFD21463846FFF7A5FF444689
:1048800004EB850301355E6125612046BDE8F081BA
:10489000FA5600080B570008B0F5803F034636BFB4
:1048A000030400201020B3F1807F3CBF1B020830BE
:1048B000B3F1805F3CBF1B010430B3F1804F3CBFBC
:1048C0009B000230002B05DB13F0804F00F101004C
:1048D00008BF202070470368024613F007000BD082
:1048E000D90721D4980749BF5B089B0801201360B2
:1048F0005CBF13600220704799B209B91B0C1020ED
:10490000D9B209B908301B0A190704BF1B090430C2
:10491000990704BF9B080230D90703D45B0800F154
:10492000010003D0136070470020704720207047BB
:1049300010B50C460121FFF707FF024628B9054BC9
:10494000054840F2451100F021FD01234461036157
:1049500010BD00BFFA5600080B5700082DE9F04FB4
:1049600014460A6923699A42A8BF23460F46A4BF8A
:104970000C461F46D4F810A0D7F81090A3686168C1
:104980000AEB0906B34285B0B8BF0131FFF7DCFE80
:1049900030B90246444B45484FF4B17100F0F6FC83
:1049A00000F1140505EB86082B460022434521D370
:1049B00007F1140104F1140202EB8A0201EB8903EE
:1049C0000293131B153B23F00303043304F1150773
:1049D000BA4238BF04230193029B03918B420CD847
:1049E000002E03DD58F8043D002B5BD0066105B0B6
:1049F000BDE8F08F43F8042BD8E7B1F800A0BAF176
:104A0000000F24D004F1140EA9464FF0000C5EF8FC
:104A1000047BD9F800301FFA87FB9BB20AFB0B33EB
:104A20004FEA174BD9F8007063444FEA174C0AFB62
:104A30000BC707EB13479BB243EA0743724549F89C
:104A4000043B4FEA174CE2D8019B45F803C0039B97
:104A5000B3F802900431B9F1000F21D02B6804F1B2
:104A6000140CAE464FF0000ABCF800B0BEF802705D
:104A700009FB0B7757449BB243EA07434EF8043BCC
:104A80005CF8043B4FEA134ABEF8003009FB0A33D6
:104A900003EB174362454FEA134AE5D8019FEB51F8
:104AA000043599E7013E9BE7FA5600080B570008CA
:104AB0002DE9F843154612F0030207460E4607D0CB
:104AC000254C013A002354F82220FFF79FFE0646AA
:104AD000AD103DD0FC697CB91020FFF77FFD024688
:104AE000F86128B91D4B1E4840F2B31100F04EFC8E
:104AF000C0E901440460C460D7F81C80D8F80840BD
:104B00004CB940F271213846FFF712FF0023C8F874
:104B10000800044603604FF00009EB070AD5314650
:104B200022463846FFF71AFF314680463846FFF7DF
:104B30004BFE46466D100BD0206838B92246214600
:104B40003846FFF70BFF2060C0F800900446E4E70A
:104B50003046BDE8F88300BF645700088B56000854
:104B60000B5700082DE9F0470C464968236903EB11
:104B70006218A368074691464FEA621A08F10106D7
:104B8000B3420BDB3846FFF7DFFD054648B9024666
:104B9000284B29484FF4EF7100F0F8FB01315B001E
:104BA000EEE7002300F1140100F11002184653450E
:104BB00033DB20692AEAEA7A04F1140319F01F09A9
:104BC00001EB8A0103EB800C2BD0C9F1200E8A4641
:104BD0000022186800FA09F010434AF8040B53F851
:104BE000042B9C4522FA0EF2F3D8ACEB0403153BE0
:104BF00023F00303043304F11500844538BF042374
:104C0000CA500AB108F10206013E38462E6121461B
:104C1000FFF7DAFD2846BDE8F08742F8040F0133BC
:104C2000C5E7043953F8042B41F8042F9C45F9D803
:104C3000EAE700BFFA5600080B5700080A69034666
:104C40000069801A30B50ED11433143103EB82049D
:104C500001EB820154F8045D51F8042D954203D014
:104C600005D24FF0FF3030BDA342F3D3FBE7012064
:104C7000F9E700002DE9F74F8946064611464846F8
:104C80001446FFF7DBFF051E12D129463046FFF719
:104C90005BFD024628B93F4B40F237213E4800F009
:104CA00075FB0123C0E90435104603B0BDE8F08F61
:104CB000BCBF4B46A1463046D9F80410BABF1C46CB
:104CC00001250025FFF740FD024618B9314B40F29F
:104CD0004521E3E7D9F810702669C56009F1100392
:104CE00009F1140504F1140E00F1140B05EB87080B
:104CF0000EEB86060193D9464FF0000C019B5EF83F
:104D0000040B53F804AF01931FFA8AF3194683B2D8
:104D1000CB1A000C6344C0EB1A4000EB23409BB25B
:104D200043EA0043764549F8043B4FEA204CE5D876
:104D3000331B153B23F0030315340433A64238BF5D
:104D400004231D445B441E462C4644450ED308F103
:104D50000301491B21F00301033DA84538BF002191
:104D60000B4453F8041D91B117619DE754F8041BDF
:104D7000E646080C1CFA81FC714400EB2C4089B219
:104D800041EA004146F8041B4FEA204CDDE7013FB1
:104D9000E7E700BFFA5600080B5700082DE9F74374
:104DA0000F46012159EC108B1646FFF7CDFC044647
:104DB00030B90246234B244840F20F3100F0E6FAA6
:104DC000C9F30A55C9F313030DB143F480130193DA
:104DD000B8F1000323D068460093FFF77CFDDDE9BE
:104DE0000012D0B1C0F1200302FA03F30B43C2401A
:104DF00063610192019BA361002B0CBF012202227F
:104E00002261A5B1A5F2334505443D60C0F13500EE
:104E10003060204603B0BDE8F0836161EAE701A895
:104E2000FFF759FD019B636120300122E8E704EBA5
:104E30008203A0F2324038601869FFF72DFDC0EB05
:104E40004210E5E7FA5600080B5700089368013B4B
:104E5000002B10B4936008DA9469A34201DB0A299D
:104E600003D15DF8044B00F0DFB91368581C1060E3
:104E7000197008465DF8044B7047F8B506460F46B2
:104E80001446D518AC4201D1002007E014F8011BEC
:104E90003A463046FFF7DAFF431CF3D1F8BD000075
:104EA0002DE9F04F0D469DB014469846064618B1C0
:104EB000036A0BB9FEF7EEFB6B6ED90705D4AB891D
:104EC0009A0502D4A86DFEF7EEFCAB891B0701D54D
:104ED0002B699BB92946304600F0E4F970B16B6E3E
:104EE000DC0704D54FF0FF301DB0BDE8F08FAB8973
:104EF0009805F7D4A86DFEF7D7FCF3E700230993D4
:104F000020238DF82930CDF80C803023DFF8AC81D8
:104F10008DF82A304FF0010923469A4613F8012BE9
:104F20000AB1252AF9D1BAEB040B0BD05B46224615
:104F300029463046FFF7A1FF013000F0A780099A0B
:104F40005A4409929AF80030002B00F09F80002309
:104F50004FF0FF32CDE905230AF1010A04930793CC
:104F60008DF853301A935446052214F8011B534808
:104F7000FBF72EF9049AD8B9D10644BF20238DF847
:104F80005330130744BF2B238DF853309AF8003069
:104F90002A2B15D0079A544600204FF00A0C2146C0
:104FA00011F8013B303B092B4BD9B0B1079214E00B
:104FB000A0EB080309FA03F313430493A246D2E7D4
:104FC000039B191D1B680391002BBBBF5B4242F082
:104FD000020207930793B8BF049223782E2B0AD1BD
:104FE00063782A2B32D1039B1A1D1B68039243EA74
:104FF000E37302340593DFF8D4A0217803225046EE
:10500000FBF7E6F838B1049BA0EB0A00402282408F
:1050100013430134049314F8011B29488DF8281018
:105020000622FBF7D5F800283FD0264B1BBB039B7D
:10503000073323F0070308330393099B3B44099389
:105040006AE70CFB02320C460120A8E7002301347A
:10505000059319464FF00A0C204610F8012B303A00
:10506000092A03D9002BC6D00591C4E70CFB012106
:1050700004460123F0E703AB00932A46124B04A930
:105080003046FDF7C3FE0746781CD6D16B6ED907B4
:1050900005D4AB899A0502D4A86DFEF705FCAB894F
:1050A0005B063FF51FAF09981EE703AB00932A4646
:1050B000054B04A93046FEF741F9E4E760580008C3
:1050C0006A5800080D2E00087B4E0008665800083C
:1050D000B1F90C202DE9F041160705460C4654D4D1
:1050E0004B68002B02DC0B6C002B48DDE66A002EBF
:1050F00045D0002312F480522F68216A2B6030D0F3
:10510000626DA389590705D56368D21A636B0BB129
:10511000236CD21A0023E66A216A2846B047431C52
:10512000A38906D129681D292BD82A4A0A41D60706
:1051300027D400226260D9042269226004D5421C6F
:1051400001D12B6803B96065616B2F60B9B104F1BF
:105150004403994202D02846FFF7F6F9002363631F
:105160000DE001232846B0470246501CC9D12B68E8
:10517000002BC6D01D2B01D0162B1ED12F60002076
:1051800022E043F040031BB21BE00F69002FF6D072
:1051900093070E6808BF4B690F6018BF0023A6EB8A
:1051A00007088B60B8F1000FE9DD216AA66A434663
:1051B0003A462846B047002808DCB4F90C3043F0E2
:1051C0004003A3814FF0FF30BDE8F0810744A8EB16
:1051D0000008E7E7FEFFBFDF38B50B6905460C4660
:1051E00013B90025284638BD18B1036A0BB9FEF77C
:1051F00051FAB4F90C30002BF3D0626ED00704D40E
:10520000990502D4A06DFEF74EFB28462146FFF714
:105210005FFF636EDA070546E4D4A3899B05E1D4FA
:10522000A06DFEF741FBDDE7F8B50E4614460546D6
:1052300018B1036A0BB9FEF72DFAA369A360A3891D
:105240001A0701D5236943B92146284600F02AF8F8
:1052500018B14FF0FF373846F8BD23682269981A15
:105260006369F6B28342374605DC21462846FFF7DC
:10527000B3FF0028EDD1A368013BA36023685A1C4B
:1052800022601E706269431C9A4204D0A389DB0726
:10529000E1D50A2EDFD121462846FFF79DFF0028E1
:1052A000D9D0D6E738B5294B054618680C4618B151
:1052B000036A0BB9FEF7EEF9B4F90C30190722D4E2
:1052C000DA0607D409222A6043F04003A3814FF095
:1052D000FF3033E0580712D5616B41B104F144034C
:1052E000994202D02846FFF72FF900236363A38970
:1052F00023F02403A3810023636023692360A3892F
:1053000043F00803A38123694BB9A38903F42073F5
:10531000B3F5007F03D02146284600F0C1F8B4F968
:105320000C3013F001020AD00022A26062695242DE
:10533000A261226942B913F08000C5D138BD990736
:1053400058BF6269A260F4E70020F7E71800002068
:1053500038B5064D0023044608462B60FCF712F8CA
:10536000431C02D12B6803B1236038BD7C040020AC
:105370000A44914200F1FF3300D1704710B511F893
:10538000014B03F8014F9142F9D110BD1FB51446EE
:105390001A46094B1B680546D86854B9074B1C468A
:1053A000CDE9013400912B46054900F041F800F0A9
:1053B000D5F8044BF4E700BF180000203156000870
:1053C000885800087B58000870B5A1FB02543CB90E
:1053D0002946FFF72DF9064628B90026304670BD4C
:1053E0000C220260F9E72A462146FEF7DEF9F5E7CE
:1053F00082B001B901A942B14BB113780B601278A8
:10540000101E18BF012002B070471046FBE76FF076
:105410000100F8E70346084641B1FF2A04D98A2271
:105420001A604FF0FF3070470A700120704700008B
:105430000EB403B5014603AB054853F8042B0068CE
:105440000193FFF72DFD02B05DF804EB03B0704748
:105450001800002070B50C46B1F90E10002996B066
:1054600015461E460DDAA38913F0800F4FF0000198
:1054700014BF40234FF48063002031602B6016B0CE
:1054800070BD6A4600F048F80028ECDB019901F491
:105490007041A1F50053594259414FF48063EBE745
:1054A0008B89F7B59D0706460C4607D504F14703DF
:1054B000236023610123636103B0F0BD01AB6A4641
:1054C000FFF7C8FF009F054639463046FFF7B0F8A2
:1054D00048B9B4F90C309A05EED423F0030343F035
:1054E0000203A381E2E7A389206043F08003A38144
:1054F000019BC4E904075BB1B4F90E10304600F01B
:105500001DF828B1A38923F0030343F00103A3810D
:10551000A3891D43A581CFE738B5074D0023044675
:10552000084611462B60FBF724FF431C02D12B6871
:1055300003B1236038BD00BF7C04002038B5064DA0
:105540000023044608462B60FBF718FF431C02D1DA
:105550002B6803B1236038BD7C04002008B5062009
:1055600000F02CF80120FBF7DFFE1F2938B50546B7
:105570000C4604D9162303604FF0FF3038BDC26BD0
:1055800012B152F821304BB9284600F031F82246CA
:1055900001462846BDE8384000F018B8012B0AD073
:1055A000591C03D1162303600120E7E7002142F8CC
:1055B0002410204698470020E0E70000024B0146F7
:1055C0001868FFF7D2BF00BF1800002038B5074D9C
:1055D00000230446084611462B60FBF79DFE431C42
:1055E00002D12B6803B1236038BD00BF7C040020CA
:1055F000FBF790BEF8B500BFF8BC08BC9E467047EC
:0C560000F8B500BFF8BC08BC9E4670471F
:1056100070726573737572653A20256620202020AC
:1056200074656D70657261747572653A20256620C7
:105630000A00000000000102030400000000000056
:1056400000000102030406070809494E4600696E7E
:1056500066004E414E006E616E00300030313233D4
:1056600034353637383941424344454600303132CB
:105670003334353637383961626364656600496EA4
:1056800066696E697479004E614E005245454E540C
:10569000206D616C6C6F6320737563636565646511
:1056A00064002F6275696C642F676E752D746F6F5F
:1056B0006C732D666F722D73746D33325F31322EC1
:1056C000332E72656C312E32303234303631322D19
:1056D000313331352F7372632F6E65776C69622FAA
:1056E0006E65776C69622F6C6962632F7374646C8A
:1056F00069622F64746F612E630042616C6C6F632A
:1057000020737563636565646564002F6275696CF9
:10571000642F676E752D746F6F6C732D666F722DAD
:1057200073746D33325F31322E332E72656C312ECD
:1057300032303234303631322D313331352F7372CD
:10574000632F6E65776C69622F6E65776C69622F67
:105750006C6962632F7374646C69622F6D7072651B
:10576000632E630005000000190000007D000000AA
:105770000080E03779C34143176E05B5B5B893464D
:10578000F5F93FE9034F384D321D30F94877825A19
:105790003CBF737FDD4F1575000000000000F03F37
:1057A00000000000000024400000000000005940FC
:1057B0000000000000408F40000000000088C3404F
:1057C00000000000006AF8400000000080842E41C4
:1057D00000000000D01263410000000084D7974110
:1057E0000000000065CDCD41000000205FA0024216
:1057F000000000E876483742000000A2941A6D428B
:10580000000040E59C30A2420000901EC4BCD6427D
:1058100000003426F56B0C430080E03779C3414328
:1058200000A0D8855734764300C84E676DC1AB439E
:10583000003D9160E458E143408CB5781DAF1544BC
:1058400050EFE2D6E41A4B4492D54D06CFF0804497
:10585000F64AE1C7022DB544B49DD9794378EA44AC
:10586000232D302B2000686C4C0065666745464749
:10587000004300504F534958002E002C2066756E8F
:105880006374696F6E3A2000617373657274696F37
:105890006E2022257322206661696C65643A206659
:1058A000696C6520222573222C206C696E65202589
:1058B00064257325730A000020202020202020204A
:1058C00020282828282820202020202020202020B0
:1058D00020202020202020208810101010101010D0
:1058E0001010101010101010040404040404040418
:1058F00004041010101010101041414141414101A9
:105900000101010101010101010101010101010187
:105910000101011010101010104242424242420296
:105920000202020202020202020202020202020257
:105930000202021010101020000000000000000001
:105940000000000000000000000000000000000057
:105950000000000000000000000000000000000047
:105960000000000000000000000000000000000037
:105970000000000000000000000000000000000027
:105980000000000000000000000000000000000017
:105990000000000000000000000000000000000007
:1059A00000000000000000000000000000000000F7
:0859B0000000000000000000EF
:0859B80018A8FF7F01000000A8
:0459C000B501000825
:0459C4009101000845
:1059C8000024F400010000001000000000000000A6
:1059D80003000000400300201C000020000000001D
:1059E80040030020A803002010040020000000004D
:1059F800000000000000000000000000000000009F
:105A0800000000000000000000000000000000008E
:105A1800000000000000000000000000000000007E
:105A2800000000000000000043000000000000002B
:105A3800000000000000000000000000000000005E
:105A4800000000000000000043000000000000000B
:105A5800000000000000000000000000000000003E
:105A680000000000000000004300000000000000EB
:105A7800000000000000000000000000000000001E
:105A880000000000000000004300000000000000CB
:105A980000000000000000000000000000000000FE
:105AA80000000000000000004300000000000000AB
:105AB80000000000000000000000000000000000DE
:105AC800000000000000000043000000000000008B
